{
  "_format": "hh-sol-artifact-1",
  "contractName": "Color",
  "sourceName": "src/contracts/Color.sol",
  "abi": [
    {
      "inputs": [],
      "stateMutability": "nonpayable",
      "type": "constructor"
    },
    {
      "inputs": [
        {
          "internalType": "address",
          "name": "sender",
          "type": "address"
        },
        {
          "internalType": "uint256",
          "name": "tokenId",
          "type": "uint256"
        },
        {
          "internalType": "address",
          "name": "owner",
          "type": "address"
        }
      ],
      "name": "ERC721IncorrectOwner",
      "type": "error"
    },
    {
      "inputs": [
        {
          "internalType": "address",
          "name": "operator",
          "type": "address"
        },
        {
          "internalType": "uint256",
          "name": "tokenId",
          "type": "uint256"
        }
      ],
      "name": "ERC721InsufficientApproval",
      "type": "error"
    },
    {
      "inputs": [
        {
          "internalType": "address",
          "name": "approver",
          "type": "address"
        }
      ],
      "name": "ERC721InvalidApprover",
      "type": "error"
    },
    {
      "inputs": [
        {
          "internalType": "address",
          "name": "operator",
          "type": "address"
        }
      ],
      "name": "ERC721InvalidOperator",
      "type": "error"
    },
    {
      "inputs": [
        {
          "internalType": "address",
          "name": "owner",
          "type": "address"
        }
      ],
      "name": "ERC721InvalidOwner",
      "type": "error"
    },
    {
      "inputs": [
        {
          "internalType": "address",
          "name": "receiver",
          "type": "address"
        }
      ],
      "name": "ERC721InvalidReceiver",
      "type": "error"
    },
    {
      "inputs": [
        {
          "internalType": "address",
          "name": "sender",
          "type": "address"
        }
      ],
      "name": "ERC721InvalidSender",
      "type": "error"
    },
    {
      "inputs": [
        {
          "internalType": "uint256",
          "name": "tokenId",
          "type": "uint256"
        }
      ],
      "name": "ERC721NonexistentToken",
      "type": "error"
    },
    {
      "anonymous": false,
      "inputs": [
        {
          "indexed": true,
          "internalType": "address",
          "name": "owner",
          "type": "address"
        },
        {
          "indexed": true,
          "internalType": "address",
          "name": "approved",
          "type": "address"
        },
        {
          "indexed": true,
          "internalType": "uint256",
          "name": "tokenId",
          "type": "uint256"
        }
      ],
      "name": "Approval",
      "type": "event"
    },
    {
      "anonymous": false,
      "inputs": [
        {
          "indexed": true,
          "internalType": "address",
          "name": "owner",
          "type": "address"
        },
        {
          "indexed": true,
          "internalType": "address",
          "name": "operator",
          "type": "address"
        },
        {
          "indexed": false,
          "internalType": "bool",
          "name": "approved",
          "type": "bool"
        }
      ],
      "name": "ApprovalForAll",
      "type": "event"
    },
    {
      "anonymous": false,
      "inputs": [
        {
          "indexed": true,
          "internalType": "address",
          "name": "from",
          "type": "address"
        },
        {
          "indexed": true,
          "internalType": "address",
          "name": "to",
          "type": "address"
        },
        {
          "indexed": true,
          "internalType": "uint256",
          "name": "tokenId",
          "type": "uint256"
        }
      ],
      "name": "Transfer",
      "type": "event"
    },
    {
      "inputs": [
        {
          "internalType": "address",
          "name": "to",
          "type": "address"
        },
        {
          "internalType": "uint256",
          "name": "tokenId",
          "type": "uint256"
        }
      ],
      "name": "approve",
      "outputs": [],
      "stateMutability": "nonpayable",
      "type": "function"
    },
    {
      "inputs": [
        {
          "internalType": "address",
          "name": "owner",
          "type": "address"
        }
      ],
      "name": "balanceOf",
      "outputs": [
        {
          "internalType": "uint256",
          "name": "",
          "type": "uint256"
        }
      ],
      "stateMutability": "view",
      "type": "function"
    },
    {
      "inputs": [
        {
          "internalType": "uint256",
          "name": "",
          "type": "uint256"
        }
      ],
      "name": "colors",
      "outputs": [
        {
          "internalType": "string",
          "name": "",
          "type": "string"
        }
      ],
      "stateMutability": "view",
      "type": "function"
    },
    {
      "inputs": [
        {
          "internalType": "uint256",
          "name": "tokenId",
          "type": "uint256"
        }
      ],
      "name": "getApproved",
      "outputs": [
        {
          "internalType": "address",
          "name": "",
          "type": "address"
        }
      ],
      "stateMutability": "view",
      "type": "function"
    },
    {
      "inputs": [
        {
          "internalType": "address",
          "name": "owner",
          "type": "address"
        },
        {
          "internalType": "address",
          "name": "operator",
          "type": "address"
        }
      ],
      "name": "isApprovedForAll",
      "outputs": [
        {
          "internalType": "bool",
          "name": "",
          "type": "bool"
        }
      ],
      "stateMutability": "view",
      "type": "function"
    },
    {
      "inputs": [
        {
          "internalType": "string",
          "name": "_color",
          "type": "string"
        }
      ],
      "name": "mint",
      "outputs": [],
      "stateMutability": "nonpayable",
      "type": "function"
    },
    {
      "inputs": [],
      "name": "name",
      "outputs": [
        {
          "internalType": "string",
          "name": "",
          "type": "string"
        }
      ],
      "stateMutability": "view",
      "type": "function"
    },
    {
      "inputs": [
        {
          "internalType": "uint256",
          "name": "tokenId",
          "type": "uint256"
        }
      ],
      "name": "ownerOf",
      "outputs": [
        {
          "internalType": "address",
          "name": "",
          "type": "address"
        }
      ],
      "stateMutability": "view",
      "type": "function"
    },
    {
      "inputs": [
        {
          "internalType": "address",
          "name": "from",
          "type": "address"
        },
        {
          "internalType": "address",
          "name": "to",
          "type": "address"
        },
        {
          "internalType": "uint256",
          "name": "tokenId",
          "type": "uint256"
        }
      ],
      "name": "safeTransferFrom",
      "outputs": [],
      "stateMutability": "nonpayable",
      "type": "function"
    },
    {
      "inputs": [
        {
          "internalType": "address",
          "name": "from",
          "type": "address"
        },
        {
          "internalType": "address",
          "name": "to",
          "type": "address"
        },
        {
          "internalType": "uint256",
          "name": "tokenId",
          "type": "uint256"
        },
        {
          "internalType": "bytes",
          "name": "data",
          "type": "bytes"
        }
      ],
      "name": "safeTransferFrom",
      "outputs": [],
      "stateMutability": "nonpayable",
      "type": "function"
    },
    {
      "inputs": [
        {
          "internalType": "address",
          "name": "operator",
          "type": "address"
        },
        {
          "internalType": "bool",
          "name": "approved",
          "type": "bool"
        }
      ],
      "name": "setApprovalForAll",
      "outputs": [],
      "stateMutability": "nonpayable",
      "type": "function"
    },
    {
      "inputs": [
        {
          "internalType": "bytes4",
          "name": "interfaceId",
          "type": "bytes4"
        }
      ],
      "name": "supportsInterface",
      "outputs": [
        {
          "internalType": "bool",
          "name": "",
          "type": "bool"
        }
      ],
      "stateMutability": "view",
      "type": "function"
    },
    {
      "inputs": [],
      "name": "symbol",
      "outputs": [
        {
          "internalType": "string",
          "name": "",
          "type": "string"
        }
      ],
      "stateMutability": "view",
      "type": "function"
    },
    {
      "inputs": [
        {
          "internalType": "uint256",
          "name": "tokenId",
          "type": "uint256"
        }
      ],
      "name": "tokenURI",
      "outputs": [
        {
          "internalType": "string",
          "name": "",
          "type": "string"
        }
      ],
      "stateMutability": "view",
      "type": "function"
    },
    {
      "inputs": [
        {
          "internalType": "address",
          "name": "from",
          "type": "address"
        },
        {
          "internalType": "address",
          "name": "to",
          "type": "address"
        },
        {
          "internalType": "uint256",
          "name": "tokenId",
          "type": "uint256"
        }
      ],
      "name": "transferFrom",
      "outputs": [],
      "stateMutability": "nonpayable",
      "type": "function"
    }
  ],
  "bytecode": "0x60806040523480156200001157600080fd5b506040518060400160405280600581526020017f436f6c6f720000000000000000000000000000000000000000000000000000008152506040518060400160405280600581526020017f434f4c4f5200000000000000000000000000000000000000000000000000000081525081600090816200008f919062000324565b508060019081620000a1919062000324565b5050506200040b565b600081519050919050565b7f4e487b7100000000000000000000000000000000000000000000000000000000600052604160045260246000fd5b7f4e487b7100000000000000000000000000000000000000000000000000000000600052602260045260246000fd5b600060028204905060018216806200012c57607f821691505b602082108103620001425762000141620000e4565b5b50919050565b60008190508160005260206000209050919050565b60006020601f8301049050919050565b600082821b905092915050565b600060088302620001ac7fffffffffffffffffffffffffffffffffffffffffffffffffffffffffffffffff826200016d565b620001b886836200016d565b95508019841693508086168417925050509392505050565b6000819050919050565b6000819050919050565b600062000205620001ff620001f984620001d0565b620001da565b620001d0565b9050919050565b6000819050919050565b6200022183620001e4565b6200023962000230826200020c565b8484546200017a565b825550505050565b600090565b6200025062000241565b6200025d81848462000216565b505050565b5b8181101562000285576200027960008262000246565b60018101905062000263565b5050565b601f821115620002d4576200029e8162000148565b620002a9846200015d565b81016020851015620002b9578190505b620002d1620002c8856200015d565b83018262000262565b50505b505050565b600082821c905092915050565b6000620002f960001984600802620002d9565b1980831691505092915050565b6000620003148383620002e6565b9150826002028217905092915050565b6200032f82620000aa565b67ffffffffffffffff8111156200034b576200034a620000b5565b5b62000357825462000113565b6200036482828562000289565b600060209050601f8311600181146200039c576000841562000387578287015190505b62000393858262000306565b86555062000403565b601f198416620003ac8662000148565b60005b82811015620003d657848901518255600182019150602085019450602081019050620003af565b86831015620003f65784890151620003f2601f891682620002e6565b8355505b6001600288020188555050505b505050505050565b6123df806200041b6000396000f3fe608060405234801561001057600080fd5b50600436106100f55760003560e01c806370a0823111610097578063bd11f69d11610066578063bd11f69d14610282578063c87b56dd146102b2578063d85d3d27146102e2578063e985e9c5146102fe576100f5565b806370a08231146101fc57806395d89b411461022c578063a22cb4651461024a578063b88d4fde14610266576100f5565b8063095ea7b3116100d3578063095ea7b31461017857806323b872dd1461019457806342842e0e146101b05780636352211e146101cc576100f5565b806301ffc9a7146100fa57806306fdde031461012a578063081812fc14610148575b600080fd5b610114600480360381019061010f91906117db565b61032e565b6040516101219190611823565b60405180910390f35b610132610410565b60405161013f91906118ce565b60405180910390f35b610162600480360381019061015d9190611926565b6104a2565b60405161016f9190611994565b60405180910390f35b610192600480360381019061018d91906119db565b6104be565b005b6101ae60048036038101906101a99190611a1b565b6104d4565b005b6101ca60048036038101906101c59190611a1b565b6105d6565b005b6101e660048036038101906101e19190611926565b6105f6565b6040516101f39190611994565b60405180910390f35b61021660048036038101906102119190611a6e565b610608565b6040516102239190611aaa565b60405180910390f35b6102346106c2565b60405161024191906118ce565b60405180910390f35b610264600480360381019061025f9190611af1565b610754565b005b610280600480360381019061027b9190611c66565b61076a565b005b61029c60048036038101906102979190611926565b61078f565b6040516102a991906118ce565b60405180910390f35b6102cc60048036038101906102c79190611926565b61083b565b6040516102d991906118ce565b60405180910390f35b6102fc60048036038101906102f79190611d8a565b6108a4565b005b61031860048036038101906103139190611dd3565b6109a0565b6040516103259190611823565b60405180910390f35b60007f80ac58cd000000000000000000000000000000000000000000000000000000007bffffffffffffffffffffffffffffffffffffffffffffffffffffffff1916827bffffffffffffffffffffffffffffffffffffffffffffffffffffffff191614806103f957507f5b5e139f000000000000000000000000000000000000000000000000000000007bffffffffffffffffffffffffffffffffffffffffffffffffffffffff1916827bffffffffffffffffffffffffffffffffffffffffffffffffffffffff1916145b80610409575061040882610a34565b5b9050919050565b60606000805461041f90611e42565b80601f016020809104026020016040519081016040528092919081815260200182805461044b90611e42565b80156104985780601f1061046d57610100808354040283529160200191610498565b820191906000526020600020905b81548152906001019060200180831161047b57829003601f168201915b5050505050905090565b60006104ad82610a9e565b506104b782610b26565b9050919050565b6104d082826104cb610b63565b610b6b565b5050565b600073ffffffffffffffffffffffffffffffffffffffff168273ffffffffffffffffffffffffffffffffffffffff16036105465760006040517f64a0ae9200000000000000000000000000000000000000000000000000000000815260040161053d9190611994565b60405180910390fd5b600061055a8383610555610b63565b610b7d565b90508373ffffffffffffffffffffffffffffffffffffffff168173ffffffffffffffffffffffffffffffffffffffff16146105d0578382826040517f64283d7b0000000000000000000000000000000000000000000000000000000081526004016105c793929190611e73565b60405180910390fd5b50505050565b6105f18383836040518060200160405280600081525061076a565b505050565b600061060182610a9e565b9050919050565b60008073ffffffffffffffffffffffffffffffffffffffff168273ffffffffffffffffffffffffffffffffffffffff160361067b5760006040517f89c62b640000000000000000000000000000000000000000000000000000000081526004016106729190611994565b60405180910390fd5b600360008373ffffffffffffffffffffffffffffffffffffffff1673ffffffffffffffffffffffffffffffffffffffff168152602001908152602001600020549050919050565b6060600180546106d190611e42565b80601f01602080910402602001604051908101604052809291908181526020018280546106fd90611e42565b801561074a5780601f1061071f5761010080835404028352916020019161074a565b820191906000526020600020905b81548152906001019060200180831161072d57829003601f168201915b5050505050905090565b61076661075f610b63565b8383610d97565b5050565b6107758484846104d4565b610789610780610b63565b85858585610f06565b50505050565b6006818154811061079f57600080fd5b9060005260206000200160009150905080546107ba90611e42565b80601f01602080910402602001604051908101604052809291908181526020018280546107e690611e42565b80156108335780601f1061080857610100808354040283529160200191610833565b820191906000526020600020905b81548152906001019060200180831161081657829003601f168201915b505050505081565b606061084682610a9e565b5060006108516110b7565b90506000815111610871576040518060200160405280600081525061089c565b8061087b846110ce565b60405160200161088c929190611ee6565b6040516020818303038152906040525b915050919050565b6007816040516108b49190611f0a565b908152602001604051809103902060009054906101000a900460ff1615610910576040517f08c379a000000000000000000000000000000000000000000000000000000000815260040161090790611f6d565b60405180910390fd5b6006819080600181540180825580915050600190039060005260206000200160009091909190915090816109449190612139565b5060006001600680549050610959919061223a565b9050610965338261119c565b60016007836040516109779190611f0a565b908152602001604051809103902060006101000a81548160ff0219169083151502179055505050565b6000600560008473ffffffffffffffffffffffffffffffffffffffff1673ffffffffffffffffffffffffffffffffffffffff16815260200190815260200160002060008373ffffffffffffffffffffffffffffffffffffffff1673ffffffffffffffffffffffffffffffffffffffff16815260200190815260200160002060009054906101000a900460ff16905092915050565b60007f01ffc9a7000000000000000000000000000000000000000000000000000000007bffffffffffffffffffffffffffffffffffffffffffffffffffffffff1916827bffffffffffffffffffffffffffffffffffffffffffffffffffffffff1916149050919050565b600080610aaa83611295565b9050600073ffffffffffffffffffffffffffffffffffffffff168173ffffffffffffffffffffffffffffffffffffffff1603610b1d57826040517f7e273289000000000000000000000000000000000000000000000000000000008152600401610b149190611aaa565b60405180910390fd5b80915050919050565b60006004600083815260200190815260200160002060009054906101000a900473ffffffffffffffffffffffffffffffffffffffff169050919050565b600033905090565b610b7883838360016112d2565b505050565b600080610b8984611295565b9050600073ffffffffffffffffffffffffffffffffffffffff168373ffffffffffffffffffffffffffffffffffffffff1614610bcb57610bca818486611497565b5b600073ffffffffffffffffffffffffffffffffffffffff168173ffffffffffffffffffffffffffffffffffffffff1614610c5c57610c0d6000856000806112d2565b6001600360008373ffffffffffffffffffffffffffffffffffffffff1673ffffffffffffffffffffffffffffffffffffffff168152602001908152602001600020600082825403925050819055505b600073ffffffffffffffffffffffffffffffffffffffff168573ffffffffffffffffffffffffffffffffffffffff1614610cdf576001600360008773ffffffffffffffffffffffffffffffffffffffff1673ffffffffffffffffffffffffffffffffffffffff168152602001908152602001600020600082825401925050819055505b846002600086815260200190815260200160002060006101000a81548173ffffffffffffffffffffffffffffffffffffffff021916908373ffffffffffffffffffffffffffffffffffffffff160217905550838573ffffffffffffffffffffffffffffffffffffffff168273ffffffffffffffffffffffffffffffffffffffff167fddf252ad1be2c89b69c2b068fc378daa952ba7f163c4a11628f55a4df523b3ef60405160405180910390a4809150509392505050565b600073ffffffffffffffffffffffffffffffffffffffff168273ffffffffffffffffffffffffffffffffffffffff1603610e0857816040517f5b08ba18000000000000000000000000000000000000000000000000000000008152600401610dff9190611994565b60405180910390fd5b80600560008573ffffffffffffffffffffffffffffffffffffffff1673ffffffffffffffffffffffffffffffffffffffff16815260200190815260200160002060008473ffffffffffffffffffffffffffffffffffffffff1673ffffffffffffffffffffffffffffffffffffffff16815260200190815260200160002060006101000a81548160ff0219169083151502179055508173ffffffffffffffffffffffffffffffffffffffff168373ffffffffffffffffffffffffffffffffffffffff167f17307eab39ab6107e8899845ad3d59bd9653f200f220920489ca2b5937696c3183604051610ef99190611823565b60405180910390a3505050565b60008373ffffffffffffffffffffffffffffffffffffffff163b11156110b0578273ffffffffffffffffffffffffffffffffffffffff1663150b7a02868685856040518563ffffffff1660e01b8152600401610f6594939291906122c3565b6020604051808303816000875af1925050508015610fa157506040513d601f19601f82011682018060405250810190610f9e9190612324565b60015b611025573d8060008114610fd1576040519150601f19603f3d011682016040523d82523d6000602084013e610fd6565b606091505b50600081510361101d57836040517f64a0ae920000000000000000000000000000000000000000000000000000000081526004016110149190611994565b60405180910390fd5b805160208201fd5b63150b7a0260e01b7bffffffffffffffffffffffffffffffffffffffffffffffffffffffff1916817bffffffffffffffffffffffffffffffffffffffffffffffffffffffff1916146110ae57836040517f64a0ae920000000000000000000000000000000000000000000000000000000081526004016110a59190611994565b60405180910390fd5b505b5050505050565b606060405180602001604052806000815250905090565b6060600060016110dd8461155b565b01905060008167ffffffffffffffff8111156110fc576110fb611b3b565b5b6040519080825280601f01601f19166020018201604052801561112e5781602001600182028036833780820191505090505b509050600082602083010190505b600115611191578080600190039150507f3031323334353637383961626364656600000000000000000000000000000000600a86061a8153600a858161118557611184612351565b5b0494506000850361113c575b819350505050919050565b600073ffffffffffffffffffffffffffffffffffffffff168273ffffffffffffffffffffffffffffffffffffffff160361120e5760006040517f64a0ae920000000000000000000000000000000000000000000000000000000081526004016112059190611994565b60405180910390fd5b600061121c83836000610b7d565b9050600073ffffffffffffffffffffffffffffffffffffffff168173ffffffffffffffffffffffffffffffffffffffff16146112905760006040517f73c6ac6e0000000000000000000000000000000000000000000000000000000081526004016112879190611994565b60405180910390fd5b505050565b60006002600083815260200190815260200160002060009054906101000a900473ffffffffffffffffffffffffffffffffffffffff169050919050565b808061130b5750600073ffffffffffffffffffffffffffffffffffffffff168273ffffffffffffffffffffffffffffffffffffffff1614155b1561143f57600061131b84610a9e565b9050600073ffffffffffffffffffffffffffffffffffffffff168373ffffffffffffffffffffffffffffffffffffffff161415801561138657508273ffffffffffffffffffffffffffffffffffffffff168173ffffffffffffffffffffffffffffffffffffffff1614155b8015611399575061139781846109a0565b155b156113db57826040517fa9fbf51f0000000000000000000000000000000000000000000000000000000081526004016113d29190611994565b60405180910390fd5b811561143d57838573ffffffffffffffffffffffffffffffffffffffff168273ffffffffffffffffffffffffffffffffffffffff167f8c5be1e5ebec7d5bd14f71427d1e84f3dd0314c0f7b2291e5b200ac8c7c3b92560405160405180910390a45b505b836004600085815260200190815260200160002060006101000a81548173ffffffffffffffffffffffffffffffffffffffff021916908373ffffffffffffffffffffffffffffffffffffffff16021790555050505050565b6114a28383836116ae565b61155657600073ffffffffffffffffffffffffffffffffffffffff168373ffffffffffffffffffffffffffffffffffffffff160361151757806040517f7e27328900000000000000000000000000000000000000000000000000000000815260040161150e9190611aaa565b60405180910390fd5b81816040517f177e802f00000000000000000000000000000000000000000000000000000000815260040161154d929190612380565b60405180910390fd5b505050565b600080600090507a184f03e93ff9f4daa797ed6e38ed64bf6a1f01000000000000000083106115b9577a184f03e93ff9f4daa797ed6e38ed64bf6a1f01000000000000000083816115af576115ae612351565b5b0492506040810190505b6d04ee2d6d415b85acef810000000083106115f6576d04ee2d6d415b85acef810000000083816115ec576115eb612351565b5b0492506020810190505b662386f26fc10000831061162557662386f26fc10000838161161b5761161a612351565b5b0492506010810190505b6305f5e100831061164e576305f5e100838161164457611643612351565b5b0492506008810190505b612710831061167357612710838161166957611668612351565b5b0492506004810190505b60648310611696576064838161168c5761168b612351565b5b0492506002810190505b600a83106116a5576001810190505b80915050919050565b60008073ffffffffffffffffffffffffffffffffffffffff168373ffffffffffffffffffffffffffffffffffffffff161415801561176657508273ffffffffffffffffffffffffffffffffffffffff168473ffffffffffffffffffffffffffffffffffffffff161480611727575061172684846109a0565b5b8061176557508273ffffffffffffffffffffffffffffffffffffffff1661174d83610b26565b73ffffffffffffffffffffffffffffffffffffffff16145b5b90509392505050565b6000604051905090565b600080fd5b600080fd5b60007fffffffff0000000000000000000000000000000000000000000000000000000082169050919050565b6117b881611783565b81146117c357600080fd5b50565b6000813590506117d5816117af565b92915050565b6000602082840312156117f1576117f0611779565b5b60006117ff848285016117c6565b91505092915050565b60008115159050919050565b61181d81611808565b82525050565b60006020820190506118386000830184611814565b92915050565b600081519050919050565b600082825260208201905092915050565b60005b8381101561187857808201518184015260208101905061185d565b60008484015250505050565b6000601f19601f8301169050919050565b60006118a08261183e565b6118aa8185611849565b93506118ba81856020860161185a565b6118c381611884565b840191505092915050565b600060208201905081810360008301526118e88184611895565b905092915050565b6000819050919050565b611903816118f0565b811461190e57600080fd5b50565b600081359050611920816118fa565b92915050565b60006020828403121561193c5761193b611779565b5b600061194a84828501611911565b91505092915050565b600073ffffffffffffffffffffffffffffffffffffffff82169050919050565b600061197e82611953565b9050919050565b61198e81611973565b82525050565b60006020820190506119a96000830184611985565b92915050565b6119b881611973565b81146119c357600080fd5b50565b6000813590506119d5816119af565b92915050565b600080604083850312156119f2576119f1611779565b5b6000611a00858286016119c6565b9250506020611a1185828601611911565b9150509250929050565b600080600060608486031215611a3457611a33611779565b5b6000611a42868287016119c6565b9350506020611a53868287016119c6565b9250506040611a6486828701611911565b9150509250925092565b600060208284031215611a8457611a83611779565b5b6000611a92848285016119c6565b91505092915050565b611aa4816118f0565b82525050565b6000602082019050611abf6000830184611a9b565b92915050565b611ace81611808565b8114611ad957600080fd5b50565b600081359050611aeb81611ac5565b92915050565b60008060408385031215611b0857611b07611779565b5b6000611b16858286016119c6565b9250506020611b2785828601611adc565b9150509250929050565b600080fd5b600080fd5b7f4e487b7100000000000000000000000000000000000000000000000000000000600052604160045260246000fd5b611b7382611884565b810181811067ffffffffffffffff82111715611b9257611b91611b3b565b5b80604052505050565b6000611ba561176f565b9050611bb18282611b6a565b919050565b600067ffffffffffffffff821115611bd157611bd0611b3b565b5b611bda82611884565b9050602081019050919050565b82818337600083830152505050565b6000611c09611c0484611bb6565b611b9b565b905082815260208101848484011115611c2557611c24611b36565b5b611c30848285611be7565b509392505050565b600082601f830112611c4d57611c4c611b31565b5b8135611c5d848260208601611bf6565b91505092915050565b60008060008060808587031215611c8057611c7f611779565b5b6000611c8e878288016119c6565b9450506020611c9f878288016119c6565b9350506040611cb087828801611911565b925050606085013567ffffffffffffffff811115611cd157611cd061177e565b5b611cdd87828801611c38565b91505092959194509250565b600067ffffffffffffffff821115611d0457611d03611b3b565b5b611d0d82611884565b9050602081019050919050565b6000611d2d611d2884611ce9565b611b9b565b905082815260208101848484011115611d4957611d48611b36565b5b611d54848285611be7565b509392505050565b600082601f830112611d7157611d70611b31565b5b8135611d81848260208601611d1a565b91505092915050565b600060208284031215611da057611d9f611779565b5b600082013567ffffffffffffffff811115611dbe57611dbd61177e565b5b611dca84828501611d5c565b91505092915050565b60008060408385031215611dea57611de9611779565b5b6000611df8858286016119c6565b9250506020611e09858286016119c6565b9150509250929050565b7f4e487b7100000000000000000000000000000000000000000000000000000000600052602260045260246000fd5b60006002820490506001821680611e5a57607f821691505b602082108103611e6d57611e6c611e13565b5b50919050565b6000606082019050611e886000830186611985565b611e956020830185611a9b565b611ea26040830184611985565b949350505050565b600081905092915050565b6000611ec08261183e565b611eca8185611eaa565b9350611eda81856020860161185a565b80840191505092915050565b6000611ef28285611eb5565b9150611efe8284611eb5565b91508190509392505050565b6000611f168284611eb5565b915081905092915050565b7f436f6c6f7220616c726561647920657869737473000000000000000000000000600082015250565b6000611f57601483611849565b9150611f6282611f21565b602082019050919050565b60006020820190508181036000830152611f8681611f4a565b9050919050565b60008190508160005260206000209050919050565b60006020601f8301049050919050565b600082821b905092915050565b600060088302611fef7fffffffffffffffffffffffffffffffffffffffffffffffffffffffffffffffff82611fb2565b611ff98683611fb2565b95508019841693508086168417925050509392505050565b6000819050919050565b600061203661203161202c846118f0565b612011565b6118f0565b9050919050565b6000819050919050565b6120508361201b565b61206461205c8261203d565b848454611fbf565b825550505050565b600090565b61207961206c565b612084818484612047565b505050565b5b818110156120a85761209d600082612071565b60018101905061208a565b5050565b601f8211156120ed576120be81611f8d565b6120c784611fa2565b810160208510156120d6578190505b6120ea6120e285611fa2565b830182612089565b50505b505050565b600082821c905092915050565b6000612110600019846008026120f2565b1980831691505092915050565b600061212983836120ff565b9150826002028217905092915050565b6121428261183e565b67ffffffffffffffff81111561215b5761215a611b3b565b5b6121658254611e42565b6121708282856120ac565b600060209050601f8311600181146121a35760008415612191578287015190505b61219b858261211d565b865550612203565b601f1984166121b186611f8d565b60005b828110156121d9578489015182556001820191506020850194506020810190506121b4565b868310156121f657848901516121f2601f8916826120ff565b8355505b6001600288020188555050505b505050505050565b7f4e487b7100000000000000000000000000000000000000000000000000000000600052601160045260246000fd5b6000612245826118f0565b9150612250836118f0565b92508282039050818111156122685761226761220b565b5b92915050565b600081519050919050565b600082825260208201905092915050565b60006122958261226e565b61229f8185612279565b93506122af81856020860161185a565b6122b881611884565b840191505092915050565b60006080820190506122d86000830187611985565b6122e56020830186611985565b6122f26040830185611a9b565b8181036060830152612304818461228a565b905095945050505050565b60008151905061231e816117af565b92915050565b60006020828403121561233a57612339611779565b5b60006123488482850161230f565b91505092915050565b7f4e487b7100000000000000000000000000000000000000000000000000000000600052601260045260246000fd5b60006040820190506123956000830185611985565b6123a26020830184611a9b565b939250505056fea2646970667358221220fcc97b32b82ddf07c8e2fb28f48ea0fa4007209f3131080c73bd69fd17d3eef564736f6c63430008140033",
  "linkReferences": {},
  "deployedLinkReferences": {}
}