{
  "_format": "hh-sol-artifact-1",
  "contractName": "Color",
  "sourceName": "src/contracts/Color.sol",
  "abi": [
    {
      "inputs": [],
      "stateMutability": "nonpayable",
      "type": "constructor"
    },
    {
      "inputs": [],
      "name": "ERC721EnumerableForbiddenBatchMint",
      "type": "error"
    },
    {
      "inputs": [
        {
          "internalType": "address",
          "name": "sender",
          "type": "address"
        },
        {
          "internalType": "uint256",
          "name": "tokenId",
          "type": "uint256"
        },
        {
          "internalType": "address",
          "name": "owner",
          "type": "address"
        }
      ],
      "name": "ERC721IncorrectOwner",
      "type": "error"
    },
    {
      "inputs": [
        {
          "internalType": "address",
          "name": "operator",
          "type": "address"
        },
        {
          "internalType": "uint256",
          "name": "tokenId",
          "type": "uint256"
        }
      ],
      "name": "ERC721InsufficientApproval",
      "type": "error"
    },
    {
      "inputs": [
        {
          "internalType": "address",
          "name": "approver",
          "type": "address"
        }
      ],
      "name": "ERC721InvalidApprover",
      "type": "error"
    },
    {
      "inputs": [
        {
          "internalType": "address",
          "name": "operator",
          "type": "address"
        }
      ],
      "name": "ERC721InvalidOperator",
      "type": "error"
    },
    {
      "inputs": [
        {
          "internalType": "address",
          "name": "owner",
          "type": "address"
        }
      ],
      "name": "ERC721InvalidOwner",
      "type": "error"
    },
    {
      "inputs": [
        {
          "internalType": "address",
          "name": "receiver",
          "type": "address"
        }
      ],
      "name": "ERC721InvalidReceiver",
      "type": "error"
    },
    {
      "inputs": [
        {
          "internalType": "address",
          "name": "sender",
          "type": "address"
        }
      ],
      "name": "ERC721InvalidSender",
      "type": "error"
    },
    {
      "inputs": [
        {
          "internalType": "uint256",
          "name": "tokenId",
          "type": "uint256"
        }
      ],
      "name": "ERC721NonexistentToken",
      "type": "error"
    },
    {
      "inputs": [
        {
          "internalType": "address",
          "name": "owner",
          "type": "address"
        },
        {
          "internalType": "uint256",
          "name": "index",
          "type": "uint256"
        }
      ],
      "name": "ERC721OutOfBoundsIndex",
      "type": "error"
    },
    {
      "anonymous": false,
      "inputs": [
        {
          "indexed": true,
          "internalType": "address",
          "name": "owner",
          "type": "address"
        },
        {
          "indexed": true,
          "internalType": "address",
          "name": "approved",
          "type": "address"
        },
        {
          "indexed": true,
          "internalType": "uint256",
          "name": "tokenId",
          "type": "uint256"
        }
      ],
      "name": "Approval",
      "type": "event"
    },
    {
      "anonymous": false,
      "inputs": [
        {
          "indexed": true,
          "internalType": "address",
          "name": "owner",
          "type": "address"
        },
        {
          "indexed": true,
          "internalType": "address",
          "name": "operator",
          "type": "address"
        },
        {
          "indexed": false,
          "internalType": "bool",
          "name": "approved",
          "type": "bool"
        }
      ],
      "name": "ApprovalForAll",
      "type": "event"
    },
    {
      "anonymous": false,
      "inputs": [
        {
          "indexed": true,
          "internalType": "address",
          "name": "from",
          "type": "address"
        },
        {
          "indexed": true,
          "internalType": "address",
          "name": "to",
          "type": "address"
        },
        {
          "indexed": true,
          "internalType": "uint256",
          "name": "tokenId",
          "type": "uint256"
        }
      ],
      "name": "Transfer",
      "type": "event"
    },
    {
      "inputs": [
        {
          "internalType": "address",
          "name": "to",
          "type": "address"
        },
        {
          "internalType": "uint256",
          "name": "tokenId",
          "type": "uint256"
        }
      ],
      "name": "approve",
      "outputs": [],
      "stateMutability": "nonpayable",
      "type": "function"
    },
    {
      "inputs": [
        {
          "internalType": "address",
          "name": "owner",
          "type": "address"
        }
      ],
      "name": "balanceOf",
      "outputs": [
        {
          "internalType": "uint256",
          "name": "",
          "type": "uint256"
        }
      ],
      "stateMutability": "view",
      "type": "function"
    },
    {
      "inputs": [
        {
          "internalType": "uint256",
          "name": "",
          "type": "uint256"
        }
      ],
      "name": "colors",
      "outputs": [
        {
          "internalType": "string",
          "name": "",
          "type": "string"
        }
      ],
      "stateMutability": "view",
      "type": "function"
    },
    {
      "inputs": [
        {
          "internalType": "uint256",
          "name": "tokenId",
          "type": "uint256"
        }
      ],
      "name": "getApproved",
      "outputs": [
        {
          "internalType": "address",
          "name": "",
          "type": "address"
        }
      ],
      "stateMutability": "view",
      "type": "function"
    },
    {
      "inputs": [
        {
          "internalType": "address",
          "name": "owner",
          "type": "address"
        },
        {
          "internalType": "address",
          "name": "operator",
          "type": "address"
        }
      ],
      "name": "isApprovedForAll",
      "outputs": [
        {
          "internalType": "bool",
          "name": "",
          "type": "bool"
        }
      ],
      "stateMutability": "view",
      "type": "function"
    },
    {
      "inputs": [
        {
          "internalType": "string",
          "name": "_color",
          "type": "string"
        }
      ],
      "name": "mint",
      "outputs": [],
      "stateMutability": "nonpayable",
      "type": "function"
    },
    {
      "inputs": [],
      "name": "name",
      "outputs": [
        {
          "internalType": "string",
          "name": "",
          "type": "string"
        }
      ],
      "stateMutability": "view",
      "type": "function"
    },
    {
      "inputs": [
        {
          "internalType": "uint256",
          "name": "tokenId",
          "type": "uint256"
        }
      ],
      "name": "ownerOf",
      "outputs": [
        {
          "internalType": "address",
          "name": "",
          "type": "address"
        }
      ],
      "stateMutability": "view",
      "type": "function"
    },
    {
      "inputs": [
        {
          "internalType": "address",
          "name": "from",
          "type": "address"
        },
        {
          "internalType": "address",
          "name": "to",
          "type": "address"
        },
        {
          "internalType": "uint256",
          "name": "tokenId",
          "type": "uint256"
        }
      ],
      "name": "safeTransferFrom",
      "outputs": [],
      "stateMutability": "nonpayable",
      "type": "function"
    },
    {
      "inputs": [
        {
          "internalType": "address",
          "name": "from",
          "type": "address"
        },
        {
          "internalType": "address",
          "name": "to",
          "type": "address"
        },
        {
          "internalType": "uint256",
          "name": "tokenId",
          "type": "uint256"
        },
        {
          "internalType": "bytes",
          "name": "data",
          "type": "bytes"
        }
      ],
      "name": "safeTransferFrom",
      "outputs": [],
      "stateMutability": "nonpayable",
      "type": "function"
    },
    {
      "inputs": [
        {
          "internalType": "address",
          "name": "operator",
          "type": "address"
        },
        {
          "internalType": "bool",
          "name": "approved",
          "type": "bool"
        }
      ],
      "name": "setApprovalForAll",
      "outputs": [],
      "stateMutability": "nonpayable",
      "type": "function"
    },
    {
      "inputs": [
        {
          "internalType": "bytes4",
          "name": "interfaceId",
          "type": "bytes4"
        }
      ],
      "name": "supportsInterface",
      "outputs": [
        {
          "internalType": "bool",
          "name": "",
          "type": "bool"
        }
      ],
      "stateMutability": "view",
      "type": "function"
    },
    {
      "inputs": [],
      "name": "symbol",
      "outputs": [
        {
          "internalType": "string",
          "name": "",
          "type": "string"
        }
      ],
      "stateMutability": "view",
      "type": "function"
    },
    {
      "inputs": [
        {
          "internalType": "uint256",
          "name": "index",
          "type": "uint256"
        }
      ],
      "name": "tokenByIndex",
      "outputs": [
        {
          "internalType": "uint256",
          "name": "",
          "type": "uint256"
        }
      ],
      "stateMutability": "view",
      "type": "function"
    },
    {
      "inputs": [
        {
          "internalType": "address",
          "name": "owner",
          "type": "address"
        },
        {
          "internalType": "uint256",
          "name": "index",
          "type": "uint256"
        }
      ],
      "name": "tokenOfOwnerByIndex",
      "outputs": [
        {
          "internalType": "uint256",
          "name": "",
          "type": "uint256"
        }
      ],
      "stateMutability": "view",
      "type": "function"
    },
    {
      "inputs": [
        {
          "internalType": "uint256",
          "name": "tokenId",
          "type": "uint256"
        }
      ],
      "name": "tokenURI",
      "outputs": [
        {
          "internalType": "string",
          "name": "",
          "type": "string"
        }
      ],
      "stateMutability": "view",
      "type": "function"
    },
    {
      "inputs": [],
      "name": "totalSupply",
      "outputs": [
        {
          "internalType": "uint256",
          "name": "",
          "type": "uint256"
        }
      ],
      "stateMutability": "view",
      "type": "function"
    },
    {
      "inputs": [
        {
          "internalType": "address",
          "name": "from",
          "type": "address"
        },
        {
          "internalType": "address",
          "name": "to",
          "type": "address"
        },
        {
          "internalType": "uint256",
          "name": "tokenId",
          "type": "uint256"
        }
      ],
      "name": "transferFrom",
      "outputs": [],
      "stateMutability": "nonpayable",
      "type": "function"
    }
  ],
  "bytecode": "0x60806040523480156200001157600080fd5b506040518060400160405280600581526020017f436f6c6f720000000000000000000000000000000000000000000000000000008152506040518060400160405280600581526020017f434f4c4f5200000000000000000000000000000000000000000000000000000081525081600090816200008f919062000324565b508060019081620000a1919062000324565b5050506200040b565b600081519050919050565b7f4e487b7100000000000000000000000000000000000000000000000000000000600052604160045260246000fd5b7f4e487b7100000000000000000000000000000000000000000000000000000000600052602260045260246000fd5b600060028204905060018216806200012c57607f821691505b602082108103620001425762000141620000e4565b5b50919050565b60008190508160005260206000209050919050565b60006020601f8301049050919050565b600082821b905092915050565b600060088302620001ac7fffffffffffffffffffffffffffffffffffffffffffffffffffffffffffffffff826200016d565b620001b886836200016d565b95508019841693508086168417925050509392505050565b6000819050919050565b6000819050919050565b600062000205620001ff620001f984620001d0565b620001da565b620001d0565b9050919050565b6000819050919050565b6200022183620001e4565b6200023962000230826200020c565b8484546200017a565b825550505050565b600090565b6200025062000241565b6200025d81848462000216565b505050565b5b8181101562000285576200027960008262000246565b60018101905062000263565b5050565b601f821115620002d4576200029e8162000148565b620002a9846200015d565b81016020851015620002b9578190505b620002d1620002c8856200015d565b83018262000262565b50505b505050565b600082821c905092915050565b6000620002f960001984600802620002d9565b1980831691505092915050565b6000620003148383620002e6565b9150826002028217905092915050565b6200032f82620000aa565b67ffffffffffffffff8111156200034b576200034a620000b5565b5b62000357825462000113565b6200036482828562000289565b600060209050601f8311600181146200039c576000841562000387578287015190505b62000393858262000306565b86555062000403565b601f198416620003ac8662000148565b60005b82811015620003d657848901518255600182019150602085019450602081019050620003af565b86831015620003f65784890151620003f2601f891682620002e6565b8355505b6001600288020188555050505b505050505050565b612a2f806200041b6000396000f3fe608060405234801561001057600080fd5b50600436106101165760003560e01c80636352211e116100a2578063b88d4fde11610071578063b88d4fde14610305578063bd11f69d14610321578063c87b56dd14610351578063d85d3d2714610381578063e985e9c51461039d57610116565b80636352211e1461026b57806370a082311461029b57806395d89b41146102cb578063a22cb465146102e957610116565b806318160ddd116100e957806318160ddd146101b557806323b872dd146101d35780632f745c59146101ef57806342842e0e1461021f5780634f6ccce71461023b57610116565b806301ffc9a71461011b57806306fdde031461014b578063081812fc14610169578063095ea7b314610199575b600080fd5b61013560048036038101906101309190611dcd565b6103cd565b6040516101429190611e15565b60405180910390f35b610153610447565b6040516101609190611ec0565b60405180910390f35b610183600480360381019061017e9190611f18565b6104d9565b6040516101909190611f86565b60405180910390f35b6101b360048036038101906101ae9190611fcd565b6104f5565b005b6101bd61050b565b6040516101ca919061201c565b60405180910390f35b6101ed60048036038101906101e89190612037565b610518565b005b61020960048036038101906102049190611fcd565b61061a565b604051610216919061201c565b60405180910390f35b61023960048036038101906102349190612037565b6106c3565b005b61025560048036038101906102509190611f18565b6106e3565b604051610262919061201c565b60405180910390f35b61028560048036038101906102809190611f18565b610759565b6040516102929190611f86565b60405180910390f35b6102b560048036038101906102b0919061208a565b61076b565b6040516102c2919061201c565b60405180910390f35b6102d3610825565b6040516102e09190611ec0565b60405180910390f35b61030360048036038101906102fe91906120e3565b6108b7565b005b61031f600480360381019061031a9190612258565b6108cd565b005b61033b60048036038101906103369190611f18565b6108f2565b6040516103489190611ec0565b60405180910390f35b61036b60048036038101906103669190611f18565b61099e565b6040516103789190611ec0565b60405180910390f35b61039b6004803603810190610396919061237c565b610a07565b005b6103b760048036038101906103b291906123c5565b610b03565b6040516103c49190611e15565b60405180910390f35b60007f780e9d63000000000000000000000000000000000000000000000000000000007bffffffffffffffffffffffffffffffffffffffffffffffffffffffff1916827bffffffffffffffffffffffffffffffffffffffffffffffffffffffff19161480610440575061043f82610b97565b5b9050919050565b60606000805461045690612434565b80601f016020809104026020016040519081016040528092919081815260200182805461048290612434565b80156104cf5780601f106104a4576101008083540402835291602001916104cf565b820191906000526020600020905b8154815290600101906020018083116104b257829003601f168201915b5050505050905090565b60006104e482610c79565b506104ee82610d01565b9050919050565b6105078282610502610d3e565b610d46565b5050565b6000600880549050905090565b600073ffffffffffffffffffffffffffffffffffffffff168273ffffffffffffffffffffffffffffffffffffffff160361058a5760006040517f64a0ae920000000000000000000000000000000000000000000000000000000081526004016105819190611f86565b60405180910390fd5b600061059e8383610599610d3e565b610d58565b90508373ffffffffffffffffffffffffffffffffffffffff168173ffffffffffffffffffffffffffffffffffffffff1614610614578382826040517f64283d7b00000000000000000000000000000000000000000000000000000000815260040161060b93929190612465565b60405180910390fd5b50505050565b60006106258361076b565b821061066a5782826040517fa57d13dc00000000000000000000000000000000000000000000000000000000815260040161066192919061249c565b60405180910390fd5b600660008473ffffffffffffffffffffffffffffffffffffffff1673ffffffffffffffffffffffffffffffffffffffff168152602001908152602001600020600083815260200190815260200160002054905092915050565b6106de838383604051806020016040528060008152506108cd565b505050565b60006106ed61050b565b8210610733576000826040517fa57d13dc00000000000000000000000000000000000000000000000000000000815260040161072a92919061249c565b60405180910390fd5b60088281548110610747576107466124c5565b5b90600052602060002001549050919050565b600061076482610c79565b9050919050565b60008073ffffffffffffffffffffffffffffffffffffffff168273ffffffffffffffffffffffffffffffffffffffff16036107de5760006040517f89c62b640000000000000000000000000000000000000000000000000000000081526004016107d59190611f86565b60405180910390fd5b600360008373ffffffffffffffffffffffffffffffffffffffff1673ffffffffffffffffffffffffffffffffffffffff168152602001908152602001600020549050919050565b60606001805461083490612434565b80601f016020809104026020016040519081016040528092919081815260200182805461086090612434565b80156108ad5780601f10610882576101008083540402835291602001916108ad565b820191906000526020600020905b81548152906001019060200180831161089057829003601f168201915b5050505050905090565b6108c96108c2610d3e565b8383610e75565b5050565b6108d8848484610518565b6108ec6108e3610d3e565b85858585610fe4565b50505050565b600a818154811061090257600080fd5b90600052602060002001600091509050805461091d90612434565b80601f016020809104026020016040519081016040528092919081815260200182805461094990612434565b80156109965780601f1061096b57610100808354040283529160200191610996565b820191906000526020600020905b81548152906001019060200180831161097957829003601f168201915b505050505081565b60606109a982610c79565b5060006109b4611195565b905060008151116109d457604051806020016040528060008152506109ff565b806109de846111ac565b6040516020016109ef929190612530565b6040516020818303038152906040525b915050919050565b600b81604051610a179190612554565b908152602001604051809103902060009054906101000a900460ff1615610a73576040517f08c379a0000000000000000000000000000000000000000000000000000000008152600401610a6a906125b7565b60405180910390fd5b600a81908060018154018082558091505060019003906000526020600020016000909190919091509081610aa79190612783565b5060006001600a80549050610abc9190612884565b9050610ac8338261127a565b6001600b83604051610ada9190612554565b908152602001604051809103902060006101000a81548160ff0219169083151502179055505050565b6000600560008473ffffffffffffffffffffffffffffffffffffffff1673ffffffffffffffffffffffffffffffffffffffff16815260200190815260200160002060008373ffffffffffffffffffffffffffffffffffffffff1673ffffffffffffffffffffffffffffffffffffffff16815260200190815260200160002060009054906101000a900460ff16905092915050565b60007f80ac58cd000000000000000000000000000000000000000000000000000000007bffffffffffffffffffffffffffffffffffffffffffffffffffffffff1916827bffffffffffffffffffffffffffffffffffffffffffffffffffffffff19161480610c6257507f5b5e139f000000000000000000000000000000000000000000000000000000007bffffffffffffffffffffffffffffffffffffffffffffffffffffffff1916827bffffffffffffffffffffffffffffffffffffffffffffffffffffffff1916145b80610c725750610c7182611373565b5b9050919050565b600080610c85836113dd565b9050600073ffffffffffffffffffffffffffffffffffffffff168173ffffffffffffffffffffffffffffffffffffffff1603610cf857826040517f7e273289000000000000000000000000000000000000000000000000000000008152600401610cef919061201c565b60405180910390fd5b80915050919050565b60006004600083815260200190815260200160002060009054906101000a900473ffffffffffffffffffffffffffffffffffffffff169050919050565b600033905090565b610d53838383600161141a565b505050565b600080610d668585856115df565b9050600073ffffffffffffffffffffffffffffffffffffffff168173ffffffffffffffffffffffffffffffffffffffff1603610daa57610da5846117f9565b610de9565b8473ffffffffffffffffffffffffffffffffffffffff168173ffffffffffffffffffffffffffffffffffffffff1614610de857610de78185611842565b5b5b600073ffffffffffffffffffffffffffffffffffffffff168573ffffffffffffffffffffffffffffffffffffffff1603610e2b57610e268461192d565b610e6a565b8473ffffffffffffffffffffffffffffffffffffffff168173ffffffffffffffffffffffffffffffffffffffff1614610e6957610e6885856119fe565b5b5b809150509392505050565b600073ffffffffffffffffffffffffffffffffffffffff168273ffffffffffffffffffffffffffffffffffffffff1603610ee657816040517f5b08ba18000000000000000000000000000000000000000000000000000000008152600401610edd9190611f86565b60405180910390fd5b80600560008573ffffffffffffffffffffffffffffffffffffffff1673ffffffffffffffffffffffffffffffffffffffff16815260200190815260200160002060008473ffffffffffffffffffffffffffffffffffffffff1673ffffffffffffffffffffffffffffffffffffffff16815260200190815260200160002060006101000a81548160ff0219169083151502179055508173ffffffffffffffffffffffffffffffffffffffff168373ffffffffffffffffffffffffffffffffffffffff167f17307eab39ab6107e8899845ad3d59bd9653f200f220920489ca2b5937696c3183604051610fd79190611e15565b60405180910390a3505050565b60008373ffffffffffffffffffffffffffffffffffffffff163b111561118e578273ffffffffffffffffffffffffffffffffffffffff1663150b7a02868685856040518563ffffffff1660e01b8152600401611043949392919061290d565b6020604051808303816000875af192505050801561107f57506040513d601f19601f8201168201806040525081019061107c919061296e565b60015b611103573d80600081146110af576040519150601f19603f3d011682016040523d82523d6000602084013e6110b4565b606091505b5060008151036110fb57836040517f64a0ae920000000000000000000000000000000000000000000000000000000081526004016110f29190611f86565b60405180910390fd5b805160208201fd5b63150b7a0260e01b7bffffffffffffffffffffffffffffffffffffffffffffffffffffffff1916817bffffffffffffffffffffffffffffffffffffffffffffffffffffffff19161461118c57836040517f64a0ae920000000000000000000000000000000000000000000000000000000081526004016111839190611f86565b60405180910390fd5b505b5050505050565b606060405180602001604052806000815250905090565b6060600060016111bb84611a89565b01905060008167ffffffffffffffff8111156111da576111d961212d565b5b6040519080825280601f01601f19166020018201604052801561120c5781602001600182028036833780820191505090505b509050600082602083010190505b60011561126f578080600190039150507f3031323334353637383961626364656600000000000000000000000000000000600a86061a8153600a85816112635761126261299b565b5b0494506000850361121a575b819350505050919050565b600073ffffffffffffffffffffffffffffffffffffffff168273ffffffffffffffffffffffffffffffffffffffff16036112ec5760006040517f64a0ae920000000000000000000000000000000000000000000000000000000081526004016112e39190611f86565b60405180910390fd5b60006112fa83836000610d58565b9050600073ffffffffffffffffffffffffffffffffffffffff168173ffffffffffffffffffffffffffffffffffffffff161461136e5760006040517f73c6ac6e0000000000000000000000000000000000000000000000000000000081526004016113659190611f86565b60405180910390fd5b505050565b60007f01ffc9a7000000000000000000000000000000000000000000000000000000007bffffffffffffffffffffffffffffffffffffffffffffffffffffffff1916827bffffffffffffffffffffffffffffffffffffffffffffffffffffffff1916149050919050565b60006002600083815260200190815260200160002060009054906101000a900473ffffffffffffffffffffffffffffffffffffffff169050919050565b80806114535750600073ffffffffffffffffffffffffffffffffffffffff168273ffffffffffffffffffffffffffffffffffffffff1614155b1561158757600061146384610c79565b9050600073ffffffffffffffffffffffffffffffffffffffff168373ffffffffffffffffffffffffffffffffffffffff16141580156114ce57508273ffffffffffffffffffffffffffffffffffffffff168173ffffffffffffffffffffffffffffffffffffffff1614155b80156114e157506114df8184610b03565b155b1561152357826040517fa9fbf51f00000000000000000000000000000000000000000000000000000000815260040161151a9190611f86565b60405180910390fd5b811561158557838573ffffffffffffffffffffffffffffffffffffffff168273ffffffffffffffffffffffffffffffffffffffff167f8c5be1e5ebec7d5bd14f71427d1e84f3dd0314c0f7b2291e5b200ac8c7c3b92560405160405180910390a45b505b836004600085815260200190815260200160002060006101000a81548173ffffffffffffffffffffffffffffffffffffffff021916908373ffffffffffffffffffffffffffffffffffffffff16021790555050505050565b6000806115eb846113dd565b9050600073ffffffffffffffffffffffffffffffffffffffff168373ffffffffffffffffffffffffffffffffffffffff161461162d5761162c818486611bdc565b5b600073ffffffffffffffffffffffffffffffffffffffff168173ffffffffffffffffffffffffffffffffffffffff16146116be5761166f60008560008061141a565b6001600360008373ffffffffffffffffffffffffffffffffffffffff1673ffffffffffffffffffffffffffffffffffffffff168152602001908152602001600020600082825403925050819055505b600073ffffffffffffffffffffffffffffffffffffffff168573ffffffffffffffffffffffffffffffffffffffff1614611741576001600360008773ffffffffffffffffffffffffffffffffffffffff1673ffffffffffffffffffffffffffffffffffffffff168152602001908152602001600020600082825401925050819055505b846002600086815260200190815260200160002060006101000a81548173ffffffffffffffffffffffffffffffffffffffff021916908373ffffffffffffffffffffffffffffffffffffffff160217905550838573ffffffffffffffffffffffffffffffffffffffff168273ffffffffffffffffffffffffffffffffffffffff167fddf252ad1be2c89b69c2b068fc378daa952ba7f163c4a11628f55a4df523b3ef60405160405180910390a4809150509392505050565b6008805490506009600083815260200190815260200160002081905550600881908060018154018082558091505060019003906000526020600020016000909190919091505550565b600061184d8361076b565b90506000600760008481526020019081526020016000205490506000600660008673ffffffffffffffffffffffffffffffffffffffff1673ffffffffffffffffffffffffffffffffffffffff16815260200190815260200160002090508282146118f95760008160008581526020019081526020016000205490508082600085815260200190815260200160002081905550826007600083815260200190815260200160002081905550505b6007600085815260200190815260200160002060009055806000848152602001908152602001600020600090555050505050565b600060016008805490506119419190612884565b9050600060096000848152602001908152602001600020549050600060088381548110611971576119706124c5565b5b906000526020600020015490508060088381548110611993576119926124c5565b5b9060005260206000200181905550816009600083815260200190815260200160002081905550600960008581526020019081526020016000206000905560088054806119e2576119e16129ca565b5b6001900381819060005260206000200160009055905550505050565b60006001611a0b8461076b565b611a159190612884565b905081600660008573ffffffffffffffffffffffffffffffffffffffff1673ffffffffffffffffffffffffffffffffffffffff168152602001908152602001600020600083815260200190815260200160002081905550806007600084815260200190815260200160002081905550505050565b600080600090507a184f03e93ff9f4daa797ed6e38ed64bf6a1f0100000000000000008310611ae7577a184f03e93ff9f4daa797ed6e38ed64bf6a1f0100000000000000008381611add57611adc61299b565b5b0492506040810190505b6d04ee2d6d415b85acef81000000008310611b24576d04ee2d6d415b85acef81000000008381611b1a57611b1961299b565b5b0492506020810190505b662386f26fc100008310611b5357662386f26fc100008381611b4957611b4861299b565b5b0492506010810190505b6305f5e1008310611b7c576305f5e1008381611b7257611b7161299b565b5b0492506008810190505b6127108310611ba1576127108381611b9757611b9661299b565b5b0492506004810190505b60648310611bc45760648381611bba57611bb961299b565b5b0492506002810190505b600a8310611bd3576001810190505b80915050919050565b611be7838383611ca0565b611c9b57600073ffffffffffffffffffffffffffffffffffffffff168373ffffffffffffffffffffffffffffffffffffffff1603611c5c57806040517f7e273289000000000000000000000000000000000000000000000000000000008152600401611c53919061201c565b60405180910390fd5b81816040517f177e802f000000000000000000000000000000000000000000000000000000008152600401611c9292919061249c565b60405180910390fd5b505050565b60008073ffffffffffffffffffffffffffffffffffffffff168373ffffffffffffffffffffffffffffffffffffffff1614158015611d5857508273ffffffffffffffffffffffffffffffffffffffff168473ffffffffffffffffffffffffffffffffffffffff161480611d195750611d188484610b03565b5b80611d5757508273ffffffffffffffffffffffffffffffffffffffff16611d3f83610d01565b73ffffffffffffffffffffffffffffffffffffffff16145b5b90509392505050565b6000604051905090565b600080fd5b600080fd5b60007fffffffff0000000000000000000000000000000000000000000000000000000082169050919050565b611daa81611d75565b8114611db557600080fd5b50565b600081359050611dc781611da1565b92915050565b600060208284031215611de357611de2611d6b565b5b6000611df184828501611db8565b91505092915050565b60008115159050919050565b611e0f81611dfa565b82525050565b6000602082019050611e2a6000830184611e06565b92915050565b600081519050919050565b600082825260208201905092915050565b60005b83811015611e6a578082015181840152602081019050611e4f565b60008484015250505050565b6000601f19601f8301169050919050565b6000611e9282611e30565b611e9c8185611e3b565b9350611eac818560208601611e4c565b611eb581611e76565b840191505092915050565b60006020820190508181036000830152611eda8184611e87565b905092915050565b6000819050919050565b611ef581611ee2565b8114611f0057600080fd5b50565b600081359050611f1281611eec565b92915050565b600060208284031215611f2e57611f2d611d6b565b5b6000611f3c84828501611f03565b91505092915050565b600073ffffffffffffffffffffffffffffffffffffffff82169050919050565b6000611f7082611f45565b9050919050565b611f8081611f65565b82525050565b6000602082019050611f9b6000830184611f77565b92915050565b611faa81611f65565b8114611fb557600080fd5b50565b600081359050611fc781611fa1565b92915050565b60008060408385031215611fe457611fe3611d6b565b5b6000611ff285828601611fb8565b925050602061200385828601611f03565b9150509250929050565b61201681611ee2565b82525050565b6000602082019050612031600083018461200d565b92915050565b6000806000606084860312156120505761204f611d6b565b5b600061205e86828701611fb8565b935050602061206f86828701611fb8565b925050604061208086828701611f03565b9150509250925092565b6000602082840312156120a05761209f611d6b565b5b60006120ae84828501611fb8565b91505092915050565b6120c081611dfa565b81146120cb57600080fd5b50565b6000813590506120dd816120b7565b92915050565b600080604083850312156120fa576120f9611d6b565b5b600061210885828601611fb8565b9250506020612119858286016120ce565b9150509250929050565b600080fd5b600080fd5b7f4e487b7100000000000000000000000000000000000000000000000000000000600052604160045260246000fd5b61216582611e76565b810181811067ffffffffffffffff821117156121845761218361212d565b5b80604052505050565b6000612197611d61565b90506121a3828261215c565b919050565b600067ffffffffffffffff8211156121c3576121c261212d565b5b6121cc82611e76565b9050602081019050919050565b82818337600083830152505050565b60006121fb6121f6846121a8565b61218d565b90508281526020810184848401111561221757612216612128565b5b6122228482856121d9565b509392505050565b600082601f83011261223f5761223e612123565b5b813561224f8482602086016121e8565b91505092915050565b6000806000806080858703121561227257612271611d6b565b5b600061228087828801611fb8565b945050602061229187828801611fb8565b93505060406122a287828801611f03565b925050606085013567ffffffffffffffff8111156122c3576122c2611d70565b5b6122cf8782880161222a565b91505092959194509250565b600067ffffffffffffffff8211156122f6576122f561212d565b5b6122ff82611e76565b9050602081019050919050565b600061231f61231a846122db565b61218d565b90508281526020810184848401111561233b5761233a612128565b5b6123468482856121d9565b509392505050565b600082601f83011261236357612362612123565b5b813561237384826020860161230c565b91505092915050565b60006020828403121561239257612391611d6b565b5b600082013567ffffffffffffffff8111156123b0576123af611d70565b5b6123bc8482850161234e565b91505092915050565b600080604083850312156123dc576123db611d6b565b5b60006123ea85828601611fb8565b92505060206123fb85828601611fb8565b9150509250929050565b7f4e487b7100000000000000000000000000000000000000000000000000000000600052602260045260246000fd5b6000600282049050600182168061244c57607f821691505b60208210810361245f5761245e612405565b5b50919050565b600060608201905061247a6000830186611f77565b612487602083018561200d565b6124946040830184611f77565b949350505050565b60006040820190506124b16000830185611f77565b6124be602083018461200d565b9392505050565b7f4e487b7100000000000000000000000000000000000000000000000000000000600052603260045260246000fd5b600081905092915050565b600061250a82611e30565b61251481856124f4565b9350612524818560208601611e4c565b80840191505092915050565b600061253c82856124ff565b915061254882846124ff565b91508190509392505050565b600061256082846124ff565b915081905092915050565b7f436f6c6f7220616c726561647920657869737473000000000000000000000000600082015250565b60006125a1601483611e3b565b91506125ac8261256b565b602082019050919050565b600060208201905081810360008301526125d081612594565b9050919050565b60008190508160005260206000209050919050565b60006020601f8301049050919050565b600082821b905092915050565b6000600883026126397fffffffffffffffffffffffffffffffffffffffffffffffffffffffffffffffff826125fc565b61264386836125fc565b95508019841693508086168417925050509392505050565b6000819050919050565b600061268061267b61267684611ee2565b61265b565b611ee2565b9050919050565b6000819050919050565b61269a83612665565b6126ae6126a682612687565b848454612609565b825550505050565b600090565b6126c36126b6565b6126ce818484612691565b505050565b5b818110156126f2576126e76000826126bb565b6001810190506126d4565b5050565b601f82111561273757612708816125d7565b612711846125ec565b81016020851015612720578190505b61273461272c856125ec565b8301826126d3565b50505b505050565b600082821c905092915050565b600061275a6000198460080261273c565b1980831691505092915050565b60006127738383612749565b9150826002028217905092915050565b61278c82611e30565b67ffffffffffffffff8111156127a5576127a461212d565b5b6127af8254612434565b6127ba8282856126f6565b600060209050601f8311600181146127ed57600084156127db578287015190505b6127e58582612767565b86555061284d565b601f1984166127fb866125d7565b60005b82811015612823578489015182556001820191506020850194506020810190506127fe565b86831015612840578489015161283c601f891682612749565b8355505b6001600288020188555050505b505050505050565b7f4e487b7100000000000000000000000000000000000000000000000000000000600052601160045260246000fd5b600061288f82611ee2565b915061289a83611ee2565b92508282039050818111156128b2576128b1612855565b5b92915050565b600081519050919050565b600082825260208201905092915050565b60006128df826128b8565b6128e981856128c3565b93506128f9818560208601611e4c565b61290281611e76565b840191505092915050565b60006080820190506129226000830187611f77565b61292f6020830186611f77565b61293c604083018561200d565b818103606083015261294e81846128d4565b905095945050505050565b60008151905061296881611da1565b92915050565b60006020828403121561298457612983611d6b565b5b600061299284828501612959565b91505092915050565b7f4e487b7100000000000000000000000000000000000000000000000000000000600052601260045260246000fd5b7f4e487b7100000000000000000000000000000000000000000000000000000000600052603160045260246000fdfea2646970667358221220e3b940b527db69902a947c5d7ae0717fc0440bc38b2f706cc3feb8f7380d3ba764736f6c63430008140033",
  "linkReferences": {},
  "deployedLinkReferences": {}
}